{
  "_format": "hh-sol-artifact-1",
  "contractName": "DeAuth",
  "sourceName": "contracts/DeAuth.sol",
  "abi": [
    {
      "inputs": [],
      "stateMutability": "nonpayable",
      "type": "constructor"
    },
    {
      "anonymous": false,
      "inputs": [
        {
          "indexed": true,
          "internalType": "address",
          "name": "from",
          "type": "address"
        },
        {
          "indexed": false,
          "internalType": "uint256",
          "name": "timestamp",
          "type": "uint256"
        },
        {
          "indexed": false,
          "internalType": "string",
          "name": "socialMedia",
          "type": "string"
        },
        {
          "indexed": false,
          "internalType": "string",
          "name": "walletApp",
          "type": "string"
        }
      ],
      "name": "AddNewPassword",
      "type": "event"
    },
    {
      "anonymous": false,
      "inputs": [
        {
          "indexed": true,
          "internalType": "address",
          "name": "from",
          "type": "address"
        },
        {
          "indexed": false,
          "internalType": "uint256",
          "name": "timestamp",
          "type": "uint256"
        },
        {
          "indexed": false,
          "internalType": "string",
          "name": "socialMedia",
          "type": "string"
        },
        {
          "indexed": false,
          "internalType": "string",
          "name": "walletApp",
          "type": "string"
        }
      ],
      "name": "Disconnect",
      "type": "event"
    },
    {
      "anonymous": false,
      "inputs": [
        {
          "indexed": false,
          "internalType": "address",
          "name": "fromOld",
          "type": "address"
        },
        {
          "indexed": true,
          "internalType": "address",
          "name": "fromNew",
          "type": "address"
        },
        {
          "indexed": false,
          "internalType": "uint256",
          "name": "timestamp",
          "type": "uint256"
        },
        {
          "indexed": false,
          "internalType": "string",
          "name": "socialMedia",
          "type": "string"
        },
        {
          "indexed": false,
          "internalType": "string",
          "name": "walletApp",
          "type": "string"
        }
      ],
      "name": "changePassword",
      "type": "event"
    },
    {
      "inputs": [
        {
          "internalType": "string",
          "name": "socialMedia",
          "type": "string"
        },
        {
          "internalType": "string",
          "name": "walletApp",
          "type": "string"
        },
        {
          "internalType": "address",
          "name": "newWalletAddress",
          "type": "address"
        }
      ],
      "name": "changeSocialMediaPassword",
      "outputs": [],
      "stateMutability": "nonpayable",
      "type": "function"
    },
    {
      "inputs": [
        {
          "internalType": "string",
          "name": "value",
          "type": "string"
        },
        {
          "internalType": "string[]",
          "name": "list",
          "type": "string[]"
        }
      ],
      "name": "checkAValueExistInList",
      "outputs": [
        {
          "internalType": "bool",
          "name": "ret",
          "type": "bool"
        }
      ],
      "stateMutability": "pure",
      "type": "function"
    },
    {
      "inputs": [
        {
          "internalType": "string",
          "name": "socialMedia",
          "type": "string"
        },
        {
          "internalType": "string",
          "name": "walletApp",
          "type": "string"
        }
      ],
      "name": "connectNewSocialMedia",
      "outputs": [],
      "stateMutability": "nonpayable",
      "type": "function"
    },
    {
      "inputs": [
        {
          "internalType": "string",
          "name": "socialMedia",
          "type": "string"
        },
        {
          "internalType": "string",
          "name": "walletApp",
          "type": "string"
        }
      ],
      "name": "disconnectSocialMedia",
      "outputs": [],
      "stateMutability": "nonpayable",
      "type": "function"
    },
    {
      "inputs": [
        {
          "internalType": "string",
          "name": "walletApp",
          "type": "string"
        }
      ],
      "name": "getConnectedSocialMedias",
      "outputs": [
        {
          "internalType": "string[]",
          "name": "",
          "type": "string[]"
        }
      ],
      "stateMutability": "view",
      "type": "function"
    },
    {
      "inputs": [
        {
          "internalType": "string",
          "name": "value",
          "type": "string"
        },
        {
          "internalType": "string[]",
          "name": "list",
          "type": "string[]"
        }
      ],
      "name": "indexOfValue",
      "outputs": [
        {
          "internalType": "uint256",
          "name": "index",
          "type": "uint256"
        }
      ],
      "stateMutability": "pure",
      "type": "function"
    }
  ],
  "bytecode": "0x608060405234801561001057600080fd5b506119c7806100206000396000f3fe608060405234801561001057600080fd5b50600436106100625760003560e01c806301669688146100675780631c69205d146100835780632f7289951461009f57806336d8c9a0146100cf5780634ea12541146100eb578063fd0dd1521461011b575b600080fd5b610081600480360381019061007c919061108a565b61014b565b005b61009d60048036038101906100989190611160565b6103a8565b005b6100b960048036038101906100b491906112d1565b6107a2565b6040516100c69190611364565b60405180910390f35b6100e960048036038101906100e4919061108a565b61080c565b005b6101056004803603810190610100919061137f565b610b6f565b6040516101129190611512565b60405180910390f35b610135600480360381019061013091906112d1565b610ca2565b604051610142919061154d565b60405180910390f35b61027e826000803373ffffffffffffffffffffffffffffffffffffffff1673ffffffffffffffffffffffffffffffffffffffff1681526020019081526020016000208360405161019b91906115a4565b9081526020016040518091039020805480602002602001604051908101604052809291908181526020016000905b828210156102755783829060005260206000200180546101e8906115ea565b80601f0160208091040260200160405190810160405280929190818152602001828054610214906115ea565b80156102615780601f1061023657610100808354040283529160200191610261565b820191906000526020600020905b81548152906001019060200180831161024457829003601f168201915b5050505050815260200190600101906101c9565b505050506107a2565b156102be576040517f08c379a00000000000000000000000000000000000000000000000000000000081526004016102b59061169f565b60405180910390fd5b6000803373ffffffffffffffffffffffffffffffffffffffff1673ffffffffffffffffffffffffffffffffffffffff1681526020019081526020016000208160405161030a91906115a4565b908152602001604051809103902082908060018154018082558091505060019003906000526020600020016000909190919091509080519060200190610351929190610dc0565b503373ffffffffffffffffffffffffffffffffffffffff167f973b188520b83089e853306009e25c9f265b8d1543901c307e36cc513a10512342848460405161039c939291906116f8565b60405180910390a25050565b6104db836000803373ffffffffffffffffffffffffffffffffffffffff1673ffffffffffffffffffffffffffffffffffffffff168152602001908152602001600020846040516103f891906115a4565b9081526020016040518091039020805480602002602001604051908101604052809291908181526020016000905b828210156104d2578382906000526020600020018054610445906115ea565b80601f0160208091040260200160405190810160405280929190818152602001828054610471906115ea565b80156104be5780601f10610493576101008083540402835291602001916104be565b820191906000526020600020905b8154815290600101906020018083116104a157829003601f168201915b505050505081526020019060010190610426565b505050506107a2565b61051a576040517f08c379a0000000000000000000000000000000000000000000000000000000008152600401610511906117af565b60405180910390fd5b600061064f846000803373ffffffffffffffffffffffffffffffffffffffff1673ffffffffffffffffffffffffffffffffffffffff1681526020019081526020016000208560405161056c91906115a4565b9081526020016040518091039020805480602002602001604051908101604052809291908181526020016000905b828210156106465783829060005260206000200180546105b9906115ea565b80601f01602080910402602001604051908101604052809291908181526020018280546105e5906115ea565b80156106325780601f1061060757610100808354040283529160200191610632565b820191906000526020600020905b81548152906001019060200180831161061557829003601f168201915b50505050508152602001906001019061059a565b50505050610ca2565b90506106b4816000803373ffffffffffffffffffffffffffffffffffffffff1673ffffffffffffffffffffffffffffffffffffffff168152602001908152602001600020856040516106a191906115a4565b9081526020016040518091039020610cfd565b6000808373ffffffffffffffffffffffffffffffffffffffff1673ffffffffffffffffffffffffffffffffffffffff1681526020019081526020016000208360405161070091906115a4565b908152602001604051809103902084908060018154018082558091505060019003906000526020600020016000909190919091509080519060200190610747929190610dc0565b508173ffffffffffffffffffffffffffffffffffffffff167f41b1007252212f8b7123d11f8f7b32dc467554e6540652dcca05a96bb1ad91103342878760405161079494939291906117de565b60405180910390a250505050565b600080600090505b82518110156108005783805190602001208382815181106107ce576107cd611831565b5b60200260200101518051906020012014156107ed576001915050610806565b80806107f89061188f565b9150506107aa565b50600090505b92915050565b61093f826000803373ffffffffffffffffffffffffffffffffffffffff1673ffffffffffffffffffffffffffffffffffffffff1681526020019081526020016000208360405161085c91906115a4565b9081526020016040518091039020805480602002602001604051908101604052809291908181526020016000905b828210156109365783829060005260206000200180546108a9906115ea565b80601f01602080910402602001604051908101604052809291908181526020018280546108d5906115ea565b80156109225780601f106108f757610100808354040283529160200191610922565b820191906000526020600020905b81548152906001019060200180831161090557829003601f168201915b50505050508152602001906001019061088a565b505050506107a2565b61097e576040517f08c379a0000000000000000000000000000000000000000000000000000000008152600401610975906117af565b60405180910390fd5b6000610ab3836000803373ffffffffffffffffffffffffffffffffffffffff1673ffffffffffffffffffffffffffffffffffffffff168152602001908152602001600020846040516109d091906115a4565b9081526020016040518091039020805480602002602001604051908101604052809291908181526020016000905b82821015610aaa578382906000526020600020018054610a1d906115ea565b80601f0160208091040260200160405190810160405280929190818152602001828054610a49906115ea565b8015610a965780601f10610a6b57610100808354040283529160200191610a96565b820191906000526020600020905b815481529060010190602001808311610a7957829003601f168201915b5050505050815260200190600101906109fe565b50505050610ca2565b9050610b18816000803373ffffffffffffffffffffffffffffffffffffffff1673ffffffffffffffffffffffffffffffffffffffff16815260200190815260200160002084604051610b0591906115a4565b9081526020016040518091039020610cfd565b3373ffffffffffffffffffffffffffffffffffffffff167fa6211e18e9554771f8237ea299c013f2317351b0300aa2fc3264358f0137cd4a428585604051610b62939291906116f8565b60405180910390a2505050565b60606000803373ffffffffffffffffffffffffffffffffffffffff1673ffffffffffffffffffffffffffffffffffffffff16815260200190815260200160002082604051610bbd91906115a4565b9081526020016040518091039020805480602002602001604051908101604052809291908181526020016000905b82821015610c97578382906000526020600020018054610c0a906115ea565b80601f0160208091040260200160405190810160405280929190818152602001828054610c36906115ea565b8015610c835780601f10610c5857610100808354040283529160200191610c83565b820191906000526020600020905b815481529060010190602001808311610c6657829003601f168201915b505050505081526020019060010190610beb565b505050509050919050565b60005b8151811015610cf6578280519060200120828281518110610cc957610cc8611831565b5b6020026020010151805190602001201415610ce357610cf7565b8080610cee9061188f565b915050610ca5565b5b92915050565b60008290505b60018280549050610d1491906118d8565b811015610d8c5781600182610d29919061190c565b81548110610d3a57610d39611831565b5b90600052602060002001828281548110610d5757610d56611831565b5b90600052602060002001908054610d6d906115ea565b610d78929190610e46565b508080610d849061188f565b915050610d03565b5080805480610d9e57610d9d611962565b5b600190038181906000526020600020016000610dba9190610ed3565b90555050565b828054610dcc906115ea565b90600052602060002090601f016020900481019282610dee5760008555610e35565b82601f10610e0757805160ff1916838001178555610e35565b82800160010185558215610e35579182015b82811115610e34578251825591602001919060010190610e19565b5b509050610e429190610f13565b5090565b828054610e52906115ea565b90600052602060002090601f016020900481019282610e745760008555610ec2565b82601f10610e855780548555610ec2565b82800160010185558215610ec257600052602060002091601f016020900482015b82811115610ec1578254825591600101919060010190610ea6565b5b509050610ecf9190610f13565b5090565b508054610edf906115ea565b6000825580601f10610ef15750610f10565b601f016020900490600052602060002090810190610f0f9190610f13565b5b50565b5b80821115610f2c576000816000905550600101610f14565b5090565b6000604051905090565b600080fd5b600080fd5b600080fd5b600080fd5b6000601f19601f8301169050919050565b7f4e487b7100000000000000000000000000000000000000000000000000000000600052604160045260246000fd5b610f9782610f4e565b810181811067ffffffffffffffff82111715610fb657610fb5610f5f565b5b80604052505050565b6000610fc9610f30565b9050610fd58282610f8e565b919050565b600067ffffffffffffffff821115610ff557610ff4610f5f565b5b610ffe82610f4e565b9050602081019050919050565b82818337600083830152505050565b600061102d61102884610fda565b610fbf565b90508281526020810184848401111561104957611048610f49565b5b61105484828561100b565b509392505050565b600082601f83011261107157611070610f44565b5b813561108184826020860161101a565b91505092915050565b600080604083850312156110a1576110a0610f3a565b5b600083013567ffffffffffffffff8111156110bf576110be610f3f565b5b6110cb8582860161105c565b925050602083013567ffffffffffffffff8111156110ec576110eb610f3f565b5b6110f88582860161105c565b9150509250929050565b600073ffffffffffffffffffffffffffffffffffffffff82169050919050565b600061112d82611102565b9050919050565b61113d81611122565b811461114857600080fd5b50565b60008135905061115a81611134565b92915050565b60008060006060848603121561117957611178610f3a565b5b600084013567ffffffffffffffff81111561119757611196610f3f565b5b6111a38682870161105c565b935050602084013567ffffffffffffffff8111156111c4576111c3610f3f565b5b6111d08682870161105c565b92505060406111e18682870161114b565b9150509250925092565b600067ffffffffffffffff82111561120657611205610f5f565b5b602082029050602081019050919050565b600080fd5b600061122f61122a846111eb565b610fbf565b9050808382526020820190506020840283018581111561125257611251611217565b5b835b8181101561129957803567ffffffffffffffff81111561127757611276610f44565b5b808601611284898261105c565b85526020850194505050602081019050611254565b5050509392505050565b600082601f8301126112b8576112b7610f44565b5b81356112c884826020860161121c565b91505092915050565b600080604083850312156112e8576112e7610f3a565b5b600083013567ffffffffffffffff81111561130657611305610f3f565b5b6113128582860161105c565b925050602083013567ffffffffffffffff81111561133357611332610f3f565b5b61133f858286016112a3565b9150509250929050565b60008115159050919050565b61135e81611349565b82525050565b60006020820190506113796000830184611355565b92915050565b60006020828403121561139557611394610f3a565b5b600082013567ffffffffffffffff8111156113b3576113b2610f3f565b5b6113bf8482850161105c565b91505092915050565b600081519050919050565b600082825260208201905092915050565b6000819050602082019050919050565b600081519050919050565b600082825260208201905092915050565b60005b8381101561142e578082015181840152602081019050611413565b8381111561143d576000848401525b50505050565b600061144e826113f4565b61145881856113ff565b9350611468818560208601611410565b61147181610f4e565b840191505092915050565b60006114888383611443565b905092915050565b6000602082019050919050565b60006114a8826113c8565b6114b281856113d3565b9350836020820285016114c4856113e4565b8060005b8581101561150057848403895281516114e1858261147c565b94506114ec83611490565b925060208a019950506001810190506114c8565b50829750879550505050505092915050565b6000602082019050818103600083015261152c818461149d565b905092915050565b6000819050919050565b61154781611534565b82525050565b6000602082019050611562600083018461153e565b92915050565b600081905092915050565b600061157e826113f4565b6115888185611568565b9350611598818560208601611410565b80840191505092915050565b60006115b08284611573565b915081905092915050565b7f4e487b7100000000000000000000000000000000000000000000000000000000600052602260045260246000fd5b6000600282049050600182168061160257607f821691505b60208210811415611616576116156115bb565b5b50919050565b600082825260208201905092915050565b7f536f6369616c206d6564696120616c726561647920636f6e6e6563746564207460008201527f6f20446541757468000000000000000000000000000000000000000000000000602082015250565b600061168960288361161c565b91506116948261162d565b604082019050919050565b600060208201905081810360008301526116b88161167c565b9050919050565b60006116ca826113f4565b6116d4818561161c565b93506116e4818560208601611410565b6116ed81610f4e565b840191505092915050565b600060608201905061170d600083018661153e565b818103602083015261171f81856116bf565b9050818103604083015261173381846116bf565b9050949350505050565b7f536f6369616c206d65646961206973206e6f7420636f6e6e656374656420746f60008201527f2044654175746800000000000000000000000000000000000000000000000000602082015250565b600061179960278361161c565b91506117a48261173d565b604082019050919050565b600060208201905081810360008301526117c88161178c565b9050919050565b6117d881611122565b82525050565b60006080820190506117f360008301876117cf565b611800602083018661153e565b818103604083015261181281856116bf565b9050818103606083015261182681846116bf565b905095945050505050565b7f4e487b7100000000000000000000000000000000000000000000000000000000600052603260045260246000fd5b7f4e487b7100000000000000000000000000000000000000000000000000000000600052601160045260246000fd5b600061189a82611534565b91507fffffffffffffffffffffffffffffffffffffffffffffffffffffffffffffffff8214156118cd576118cc611860565b5b600182019050919050565b60006118e382611534565b91506118ee83611534565b92508282101561190157611900611860565b5b828203905092915050565b600061191782611534565b915061192283611534565b9250827fffffffffffffffffffffffffffffffffffffffffffffffffffffffffffffffff0382111561195757611956611860565b5b828201905092915050565b7f4e487b7100000000000000000000000000000000000000000000000000000000600052603160045260246000fdfea26469706673582212201855ddbf19220e7638d8a92a6ec03caa45ad6b2f6a655a3339c6101382a01c2a64736f6c63430008090033",
  "linkReferences": {},
  "deployedLinkReferences": {}
}